:0C06B2000A10C0F9A4B0999282F8809060
:10055700E51C451B701575A0BFAE0EAF0F7C037D64
:10056700E812027374102FF8E6F5B0E51C64014534
:100577001B701D75A0DFAE0EAF0FFC7D64120273FA
:100587007C007D0A12027374102DF8E6547FF5B0D3
:10059700E51C6402451B701B75A0EFAE0EAF0FFC88
:1005A7007D0A1202737C007D0A12027374102DF803
:1005B700E6F5B0E51C6403451B701475A0F7AE0E95
:1005C700AF0FFC7D0A12027374102DF8E6F5B02206
:10067A00EF4488F5BC00000000E5BC30E4FB53BC45
:03068A00EFAFBD12
:01068D00224A
:10068E00759DFF759101E4F592F5BD75BC807F02F5
:04069E00FE02065FF3
:10065F00EF1FAA0670011E4A60107C137D88ED1DE6
:0A066F00AA0470011C4A60E880F440
:01067900225E
:1006A200758901758CF8758A30D2AFD2A9D28C22A5
:03000B000205D714
:1005D700C0E0C0F0C0D075D000C000C004C005C0E6
:1005E70006C007758CF8758A30051CE51C70020576
:1005F7001BC39404E51B94004006751B00751C0083
:10060700120557D007D006D005D004D000D0D0D0DF
:04061700F0D0E0320D
:1003F3001206A2E4F594F593F592F591F596F59529
:10040300F5B2F5B1F5B4F5B3F5CAF5C9F5CCF5CB4D
:10041300F5E2F5E112068EE4FF12067A751D008FF0
:100423001EAE1DE51E7802C333CE33CED8F9F51EBA
:100433008E1DAFBEEF421EE4AC1DAD1E1201B98F7F
:100443000B8E0A8D098C08E4FFFE7DC87C42AB0B42
:10045300AA0AA909A80812000E7B007A80794C78B1
:10046300431201171201F2E4FCFDE5222FF522E508
:10047300213EF521ED3520F520EC351FF51F050D47
:10048300E50D7002050CC394F4E50C94014088E477
:100493007BF47A01F9F8AF22AE21AD20AC1F12062E
:1004A3001BE47B3F7A01F9F81202C8E47B64FAF992
:1004B300F812061B8E0E8F0FE4F522F521F520F5B9
:0804C3001FF50CF50D02041AEF
:10000E00EC4D6011E8497017ED33EC3304600DE4EC
:10001E00FCFFFEFD22E933E8330470F802025E12A3
:10002E00022958046009E4CC2481500628500902A4
:10003E000268284003020265C0E0EB4A7044B980B2
:10004E0006D0E0FB020254EF4E701CBD8008EBFFA1
:10005E00EAFEE9FD80EBE98DF0A4FEE5F00200F783
:10006E00E9CDF9EAFEEBFFEF89F0A4FCE5F0CE89CD
:10007E00F0A42EFFE435F0CD89F0A42DFEE435F08A
:10008E008067EF4E7005BD80D780C3EF8BF0A4ACB8
:10009E00F0EE8BF0A42CFCE435F0F8EF8AF0A42CF3
:1000AE00E5F038FCE433CB8DF0A42CFCE5F03BF806
:1000BE00EE8AF0A42CFCE5F038F8E433CF89F0A4F6
:1000CE002CFCE5F038CF3400CE89F0A42FFFE5F0FC
:1000DE003EFEE433C98DF0A42EFEE5F039CD8AF054
:1000EE00A42FFFE5F03EFEE43DFD33D0E0FB5007CC
:1000FE000BBB000F020268EC2CFCEF33FFEE33FE5D
:06010E00ED33FD0202408A
:10011400020268EC5D046005E85904700302025EA3
:10012400120229580460F6EC4860F2EC7004FDFEFB
:10013400FF22C860DB2481C85009C39860025006BE
:100144000202659850CAF582E9294B4A7005AB82D0
:1001540002025475F0007C1A7880C3EF9BEE9AED8E
:1001640099400DC3EF9BFFEE9AFEED99FDE842F036
:10017400DC23ACF0D0E0FFD0E0FED0E0FDAB822089
:10018400E7101BEB60BAEC2CFCEF33FFEE33FEED13
:1001940033FD020240E803F830E705C0F075F000D3
:1001A400EF2FFFEE33FEED33FD40B830E7C280AAF7
:1001B40075F020800E75F010800575F0087D007EC6
:1001C400007F003392D530D503120317EC3340106F
:1001D400EF33FFEE33FEED33FDEC33FCD5F0ED22CF
:0E01E400E5F0247EA2D513CC92E7CDCEFF220B
:1001F200EDD2E7CD33EC3392D524814006E4FFFE05
:10020200FDFC22FCE4CFCECDCC24E0501174FF8063
:10021200EDC3CC13CCCD13CDCE13CECF13CF047000
:07022200F030D5DE020317E6
:10022900E9D2E7C933E833F892D5EDD2E7CD33EC1B
:0702390033FC5002B2D52294
:10024000EC30E7100FBF000C0EBE00080DBD00041F
:100250000BEB6014A2D5EB13FCED92E7FD2274FFCB
:10026000FCFDFEFF22E480F8A2D574FF13FC7D8024
:03027000E480EF38
:030000000204CB2C
:0C04CB00787FE4F6D8FD7581230205124D
:10027300BC000BBE0029EF8DF084FFADF022E4CC6F
:10028300F875F008EF2FFFEE33FEEC33FCEE9DEC38
:10029300984005FCEE9DFE0FD5F0E9E4CEFD22ED7E
:1002A300F8F5F0EE8420D21CFEADF075F008EF2FC8
:1002B300FFED33FD4007985006D5F0F222C398FDB9
:0502C3000FD5F0EA2256
:1002C800E88FF0A4CC8BF0A42CFCE98EF0A42CFCD5
:1002D8008AF0EDA42CFCEA8EF0A4CDA8F08BF0A453
:1002E8002DCC3825F0FDE98FF0A42CCD35F0FCEBB2
:1002F8008EF0A4FEA9F0EB8FF0A4CFC5F02ECD3977
:0F030800FEE43CFCEAA42DCE35F0FDE43CFC22E3
:10061B00C2D5E830E70FB2D5E4C39BFBE49AFAE40A
:10062B0099F9E498F8EC30E717B2D512065112039A
:10063B0061E4C39BFBE49AFAE499F9E498F880032C
:10064B0012036130D50DE4C39FFFE49EFEE49DFDD4
:04065B00E49CFC22FD
:0E031700C3E49FFFE49EFEE49DFDE49CFC22F7
:1004D7000203F3E493A3F8E493A34003F68001F245
:1004E70008DFF48029E493A3F85407240CC8C33326
:1004F700C4540F4420C8834004F456800146F6DFF5
:10050700E4800B01020408102040809006B2E47ECC
:10051700019360BCA3FF543F30E509541FFEE493E9
:10052700A360010ECF54C025E060A840B8E493A3B0
:10053700FAE493A3F8E493A3C8C582C8CAC583CADB
:10054700F0A3C8C582C8CAC583CADFE9DEE780BE93
:0106BE00003B
:1003250075F008758200EF2FFFEE33FECD33CDCC8F
:1003350033CCC58233C5829BED9AEC99E582984012
:100345000CF582EE9BFEED9AFDEC99FC0FD5F0D6EF
:10035500E4CEFBE4CDFAE4CCF9A88222B800C1B919
:100365000059BA002DEC8BF084CFCECDFCE5F0CB57
:10037500F97818EF2FFFEE33FEED33FDEC33FCEB90
:1003850033FB10D703994004EB99FB0FD8E5E4F94B
:10039500FA227818EF2FFFEE33FEED33FDEC33FC38
:1003A500C933C910D7059BE99A4007EC9BFCE99A2C
:1003B500F90FD8E0E4C9FAE4CCFB2275F010EF2F71
:1003C500FFEE33FEED33FDCC33CCC833C810D70771
:1003D5009BEC9AE899400AED9BFDEC9AFCE899F8AC
:0E03E5000FD5F0DAE4CDFBE4CCFAE4C8F9223F
:00000001FF
